:100000000C945D000C9485000C9485000C94850084
:100010000C9485000C9485000C9485000C9485004C
:100020000C9485000C9485000C9485000C9485003C
:100030000C9485000C9485000C9485000C9485002C
:100040000C94BF030C9485000C942F040C940904A9
:100050000C9485000C9485000C9485000C9485000C
:100060000C9485000C94850000000008000201003B
:100070000003040700000000000000000000000072
:10008000250028002B0000000000240027002A0083
:10009000040404040404040402020202020203032E
:1000A0000303030301020408102040800102040836
:1000B0001020010204081020610411241FBECFEF9C
:1000C000D8E0DEBFCDBF11E0A0E0B1E0E4E1FDE0AB
:1000D00002C005900D92A034B107D9F722E0A0E448
:1000E000B1E001C01D92A030B207E1F710E0CDE50C
:1000F000D0E004C02197FE010E948206CC35D107D2
:10010000C9F70E94AB040C9488060C94000090E0A0
:10011000FC01EC55FF4F249180579F4FFC018491C7
:10012000882399F090E0880F991FFC01EA57FF4F50
:10013000A591B491FC01E458FF4F859194918FB73C
:10014000F894EC91E22BEC938FBF089590E0FC01C2
:10015000E859FF4F2491FC01EC55FF4F3491FC010D
:10016000E057FF4FE491EE23C9F0222339F023300A
:1001700001F1A8F4213019F1223029F1F0E0EE0F5D
:10018000FF1FE458FF4FA591B4918FB7F894EC91FD
:10019000611126C030953E233C938FBF08952730D0
:1001A000A9F02830C9F0243049F7809180008F7D74
:1001B00003C0809180008F7780938000DFCF84B56B
:1001C0008F7784BDDBCF84B58F7DFBCF8091B0006E
:1001D0008F778093B000D2CF8091B0008F7DF9CF20
:1001E0003E2BDACF3FB7F8948091470190914801B8
:1001F000A0914901B0914A0126B5A89B05C02F3FA7
:1002000019F00196A11DB11D3FBFBA2FA92F982F3C
:100210008827BC01CD01620F711D811D911D42E037
:10022000660F771F881F991F4A95D1F708958F92FF
:100230009F92AF92BF92CF92DF92EF92FF924B01CB
:100240005C010E94F2006B017C010E94F2006C19BB
:100250007D098E099F09683E734081059105A8F3C9
:1002600021E0821A9108A108B10888EEC80E83E047
:10027000D81EE11CF11C81149104A104B10429F7DA
:10028000FF90EF90DF90CF90BF90AF909F908F90B6
:100290000895AF92BF92CF92DF92EF92FF920F93A9
:1002A0001F93CF93DF936C017B018B01040F151F0C
:1002B000EB015E01AE18BF08C017D10759F0699174
:1002C000D601ED91FC910190F081E02DC6010995D8
:1002D000892B79F7C501DF91CF911F910F91FF9085
:1002E000EF90DF90CF90BF90AF900895FC01538DB9
:1002F000448D252F30E0842F90E0821B930B541700
:1003000010F0CF96089501970895FC01918D828D8C
:10031000981761F0A28DAE0FBF2FB11D5D968C9125
:10032000928D9F5F9F73928F90E008958FEF9FEF64
:100330000895FC01918D828D981731F0828DE80F20
:10034000F11D858D90E008958FEF9FEF0895FC01DA
:10035000918D228D892F90E0805C9F4F821B9109A7
:100360008F73992708958BE491E00E94A70121E003
:10037000892B09F420E0822F089580E090E0892BFA
:1003800029F00E94B30181110C9400000895FC0132
:10039000A48DA80FB92FB11DA35ABF4F2C91848DE6
:1003A00090E001968F739927848FA689B7892C9343
:1003B000A089B1898C91837080648C93938D848D96
:1003C000981306C00288F389E02D80818F7D808399
:1003D0000895EF92FF920F931F93CF93DF93EC0159
:1003E00081E0888F9B8D8C8D98131AC0E889F989DC
:1003F000808185FF15C09FB7F894EE89FF896083DF
:10040000E889F98980818370806480839FBF81E05F
:1004100090E0DF91CF911F910F91FF90EF900895A1
:10042000F62E0B8D10E00F5F1F4F0F731127E02E7C
:100430008C8D8E110CC00FB607FCFACFE889F989B4
:10044000808185FFF5CFCE010E94C701F1CFEB8DF2
:10045000EC0FFD2FF11DE35AFF4FF0829FB7F89488
:100460000B8FEA89FB8980818062CFCFCF93DF93A6
:10047000EC01888D8823B9F0AA89BB89E889F989BC
:100480008C9185FD03C0808186FD0DC00FB607FCF1
:10049000F7CF8C9185FFF2CF808185FFEDCFCE0124
:1004A0000E94C701E9CFDF91CF910895089590E0B0
:1004B00080E00895CF93DF93EC0160E08E810E948D
:1004C000A60061E08E810E94A60060E08E810E94FD
:1004D000A6008BE891E00197F1F7DF91CF910895A5
:1004E000CF92DF92EF92FF920F931F93CF93DF9300
:1004F0006C017C0187E0E80EF11CD0E0C0E0062F23
:1005000010E0B8010C2E02C0759567950A94E2F7C9
:100510006170F70181917F010E94A6002196C4308D
:10052000D10579F7C601DF91CF911F910F91FF900F
:10053000EF90DF90CF900C945A02CF92DF92EF921F
:10054000FF920F931F93CF93DF93EC01F62E642F4E
:100550008C810E94A6008D818F3F19F060E00E947F
:10056000A6000F2D10E08F8584FF25C06E0187E067
:10057000C80ED11CF12CE12CB8010E2C02C07595CF
:1005800067950A94E2F76170F60181916F010E940C
:10059000A600FFEFEF1AFF0A88E0E816F10461F702
:1005A000CE01DF91CF911F910F91FF90EF90DF90DF
:1005B000CF900C945A02B80184E0759567958A959E
:1005C000E1F7CE010E9470026F2DCE01DF91CF9135
:1005D0001F910F91FF90EF90DF90CF900C947002DD
:1005E00040E0682F88EE91E00C949D0281E00E942B
:1005F000F0028BE39FE10197F1F70895CF93DF932A
:10060000823029F49091F70198609093F7018093DC
:10061000FB011092FC0180E48093FD0180E1809356
:10062000FE0180E58093FF018091EC010E9487002C
:100630008091ED018F3F11F00E9487008091EE01C3
:100640000E948700C8EED1E09E01285E3140809173
:10065000F70184FD0AC084E090E02196281739074D
:100660003CF48E810E948700EFCF88E090E0F5CFC8
:100670008BE39DE00197F1F760E08091EC010E942F
:10068000A60060E08091EE010E94A6008091ED013D
:100690008F3F19F060E00E94A6008091F70184FD71
:1006A00034C063E088EE91E00E947002CBE4D6E4AF
:1006B000CE010197F1F763E088EE91E00E947002AD
:1006C0002197F1F763E088EE91E00E94700283E5E4
:1006D00092E00197F1F762E088EE91E00E947002EB
:1006E0008091F70180620E94F00284E08093F8011B
:1006F0008CE00E94F0020E94F60282E08093F901F1
:1007000086E0DF91CF910C94F00280620E94F002AB
:100710008BE496E40197F1F78091F70180620E94E3
:10072000F00283E592E00197F1F78091F701806292
:100730000E94F002D5CF9091FB01891710F08FEF46
:10074000890FE82FF0E0E851FE4F84898F5F8068C1
:100750000C94F00241E00E949D0281E090E0089537
:10076000FB0101900020E9F73197AF01461B570BC1
:10077000DC01ED91FC910280F381E02D09941F9240
:100780000F920FB60F9211242F933F938F939F9345
:10079000AF93BF938091430190914401A091450193
:1007A000B09146013091420123E0230F2D3758F5D7
:1007B0000196A11DB11D20934201809343019093A6
:1007C0004401A0934501B093460180914701909167
:1007D0004801A0914901B0914A010196A11DB11DA6
:1007E0008093470190934801A0934901B0934A0137
:1007F000BF91AF919F918F913F912F910F900FBE1D
:100800000F901F90189526E8230F0296A11DB11D89
:10081000D2CF1F920F920FB60F9211242F933F93B6
:100820004F935F936F937F938F939F93AF93BF93F8
:10083000EF93FF938BE491E00E94C701FF91EF914A
:10084000BF91AF919F918F917F916F915F914F91E8
:100850003F912F910F900FBE0F901F9018951F92F0
:100860000F920FB60F9211242F938F939F93EF93B4
:10087000FF93E0915B01F0915C018081E091610167
:10088000F091620182FD1BC09081809164018F5FB5
:100890008F7320916501821741F0E0916401F0E0CF
:1008A000E55BFE4F958F80936401FF91EF919F91DF
:1008B0008F912F910F900FBE0F901F9018958081F0
:1008C000F4CFEBE4F1E01382128288EE93E0A0E033
:1008D000B0E084839583A683B78384E091E091831D
:1008E000808385EC90E09587848784EC90E09787FF
:1008F000868780EC90E0918B808B81EC90E0938BED
:10090000828B82EC90E0958B848B86EC90E0978BC9
:10091000868B118E128E138E148EE8EEF1E0138208
:10092000128286E191E09183808387E084838FEF58
:10093000858386E0868385E0878384E0808783E003
:10094000818782E08287138614861586168617862D
:1009500081E00C94FE02CF93DF93CDB7DEB7A19771
:100960000FB6F894DEBF0FBECDBF789484B5826019
:1009700084BD84B5816084BD85B5826085BD85B543
:10098000816085BD80916E00816080936E001092C1
:10099000810080918100826080938100809181003C
:1009A00081608093810080918000816080938000CD
:1009B0008091B10084608093B1008091B00081602B
:1009C0008093B00080917A00846080937A00809157
:1009D0007A00826080937A0080917A0081608093AF
:1009E0007A0080917A00806880937A001092C1002A
:1009F00088E00E94870089E00E9487008AE00E94C8
:100A000087000E94F60282E00E94FE0280E00E94BF
:100A10009B036EE171E088EE91E00E94B00381E0FB
:100A20000E949B036BE271E088EE91E00E94B003AC
:100A300068EE73E080E090E00E9417010E94F602E9
:100A4000E0915B01F0915C0182E08083E0915701CD
:100A5000F09158011082E0915901F0915A018FEC08
:100A6000808310926301E0915F01F091600186E064
:100A70008083E0915D01F0915E01808180618083DF
:100A8000E0915D01F0915E01808188608083E0915A
:100A90005D01F0915E01808180688083E0915D015D
:100AA000F0915E0180818F7D808380E4382E442424
:100AB0004A9493E0592E612C712C2AE0C22ED12C3D
:100AC000E12CF12C30927C0080917A00806480933C
:100AD0007A0080917A0086FDFCCFA0917800B091D9
:100AE00079002FEF30E00E947B06A30192010E9463
:100AF0002B0649015A013093410120934001B7FE72
:100B000096C06DE28BE491E00E94E9012227332731
:100B1000A901281939094A095B0919A28E010F5D3B
:100B20001F4FCA01B901A70196010E944A06605DE4
:100B3000F80162938F01211531054105510589F7AF
:100B40000115110529F0B8018BE491E00E94B00372
:100B500063E371E08BE491E00E94B0038091400177
:100B6000909141018C3D91053CF580E00E949B03F2
:100B700066E371E088EE91E00E94B00363E371E008
:100B800088EE91E00E94B00361E088E00E94A60038
:100B900064EF71E080E090E00E94170161E089E07D
:100BA0000E94A60064EF71E080E090E00E941701CF
:100BB00061E08AE00E94A60080914001909141018D
:100BC0008D3D91053CF180E00E949B036CE371E058
:100BD00088EE91E00E94B00363E371E088EE91E05B
:100BE0000E94B00360E088E00E94A60060E273E02B
:100BF00080E090E00E94170160E089E00E94A6007A
:100C000068EE73E080E090E00E94170160E08AE007
:100C10000E94A60080E090E0892B09F453CF0E9447
:100C2000B301882309F44ECF0E9400004BCF19A2D4
:100C30008E010F5D1F4FCA01B901A70196010E94E5
:100C40004A06605DF80162938F0121153105410567
:100C5000510589F775CF052E97FB1EF400940E946D
:100C6000420657FD07D00E944A0607FC03D04EF407
:100C70000C94420650954095309521953F4F4F4F2B
:100C80005F4F089590958095709561957F4F8F4F38
:100C90009F4F0895A1E21A2EAA1BBB1BFD010DC098
:100CA000AA1FBB1FEE1FFF1FA217B307E407F5071C
:100CB00020F0A21BB30BE40BF50B661F771F881FF8
:100CC000991F1A9469F760957095809590959B018E
:100CD000AC01BD01CF010895A29FB001B39FC00137
:100CE000A39F700D811D1124911DB29F700D811D58
:100CF0001124911D08950E946C06B7FF0895821B70
:100D0000930B0895EE0FFF1F0590F491E02D0994C9
:040D1000F894FFCF85
:100D140000000000E901490176013602A7018501BE
:100D2400990100000000AA034901570256025354D6
:100D340052454554204C494748540050524F4A4567
:100D44004354000D0A004E49474854004441590099
:00000001FF
